{
  "_format": "hh3-artifact-1",
  "contractName": "ConcurrentERC721",
  "sourceName": "contracts/ConcurrentERC721.sol",
  "abi": [
    {
      "inputs": [
        {
          "internalType": "string",
          "name": "name_",
          "type": "string"
        },
        {
          "internalType": "string",
          "name": "symbol_",
          "type": "string"
        }
      ],
      "stateMutability": "nonpayable",
      "type": "constructor"
    },
    {
      "anonymous": false,
      "inputs": [
        {
          "indexed": true,
          "internalType": "address",
          "name": "owner",
          "type": "address"
        },
        {
          "indexed": true,
          "internalType": "address",
          "name": "approved",
          "type": "address"
        },
        {
          "indexed": true,
          "internalType": "uint256",
          "name": "tokenId",
          "type": "uint256"
        }
      ],
      "name": "Approval",
      "type": "event"
    },
    {
      "anonymous": false,
      "inputs": [
        {
          "indexed": true,
          "internalType": "address",
          "name": "owner",
          "type": "address"
        },
        {
          "indexed": true,
          "internalType": "address",
          "name": "operator",
          "type": "address"
        },
        {
          "indexed": false,
          "internalType": "bool",
          "name": "approved",
          "type": "bool"
        }
      ],
      "name": "ApprovalForAll",
      "type": "event"
    },
    {
      "anonymous": false,
      "inputs": [
        {
          "indexed": true,
          "internalType": "address",
          "name": "from",
          "type": "address"
        },
        {
          "indexed": true,
          "internalType": "address",
          "name": "to",
          "type": "address"
        },
        {
          "indexed": true,
          "internalType": "uint256",
          "name": "tokenId",
          "type": "uint256"
        }
      ],
      "name": "Transfer",
      "type": "event"
    },
    {
      "inputs": [
        {
          "internalType": "address",
          "name": "to",
          "type": "address"
        },
        {
          "internalType": "uint256",
          "name": "tokenId",
          "type": "uint256"
        }
      ],
      "name": "approve",
      "outputs": [],
      "stateMutability": "nonpayable",
      "type": "function"
    },
    {
      "inputs": [
        {
          "internalType": "address",
          "name": "owner",
          "type": "address"
        }
      ],
      "name": "balanceOf",
      "outputs": [
        {
          "internalType": "uint256",
          "name": "",
          "type": "uint256"
        }
      ],
      "stateMutability": "view",
      "type": "function"
    },
    {
      "inputs": [
        {
          "internalType": "uint256",
          "name": "tokenId",
          "type": "uint256"
        }
      ],
      "name": "burn",
      "outputs": [],
      "stateMutability": "nonpayable",
      "type": "function"
    },
    {
      "inputs": [
        {
          "internalType": "uint256",
          "name": "tokenId",
          "type": "uint256"
        }
      ],
      "name": "getApproved",
      "outputs": [
        {
          "internalType": "address",
          "name": "",
          "type": "address"
        }
      ],
      "stateMutability": "view",
      "type": "function"
    },
    {
      "inputs": [
        {
          "internalType": "address",
          "name": "owner",
          "type": "address"
        },
        {
          "internalType": "address",
          "name": "operator",
          "type": "address"
        }
      ],
      "name": "isApprovedForAll",
      "outputs": [
        {
          "internalType": "bool",
          "name": "",
          "type": "bool"
        }
      ],
      "stateMutability": "view",
      "type": "function"
    },
    {
      "inputs": [
        {
          "internalType": "address",
          "name": "to",
          "type": "address"
        }
      ],
      "name": "mint",
      "outputs": [
        {
          "internalType": "uint256",
          "name": "",
          "type": "uint256"
        }
      ],
      "stateMutability": "nonpayable",
      "type": "function"
    },
    {
      "inputs": [],
      "name": "minter",
      "outputs": [
        {
          "internalType": "address",
          "name": "",
          "type": "address"
        }
      ],
      "stateMutability": "view",
      "type": "function"
    },
    {
      "inputs": [],
      "name": "name",
      "outputs": [
        {
          "internalType": "string",
          "name": "",
          "type": "string"
        }
      ],
      "stateMutability": "view",
      "type": "function"
    },
    {
      "inputs": [
        {
          "internalType": "uint256",
          "name": "tokenId",
          "type": "uint256"
        }
      ],
      "name": "ownerOf",
      "outputs": [
        {
          "internalType": "address",
          "name": "",
          "type": "address"
        }
      ],
      "stateMutability": "view",
      "type": "function"
    },
    {
      "inputs": [
        {
          "internalType": "address",
          "name": "from",
          "type": "address"
        },
        {
          "internalType": "address",
          "name": "to",
          "type": "address"
        },
        {
          "internalType": "uint256",
          "name": "tokenId",
          "type": "uint256"
        }
      ],
      "name": "safeTransferFrom",
      "outputs": [],
      "stateMutability": "nonpayable",
      "type": "function"
    },
    {
      "inputs": [
        {
          "internalType": "address",
          "name": "from",
          "type": "address"
        },
        {
          "internalType": "address",
          "name": "to",
          "type": "address"
        },
        {
          "internalType": "uint256",
          "name": "tokenId",
          "type": "uint256"
        },
        {
          "internalType": "bytes",
          "name": "data",
          "type": "bytes"
        }
      ],
      "name": "safeTransferFrom",
      "outputs": [],
      "stateMutability": "nonpayable",
      "type": "function"
    },
    {
      "inputs": [
        {
          "internalType": "address",
          "name": "operator",
          "type": "address"
        },
        {
          "internalType": "bool",
          "name": "approved",
          "type": "bool"
        }
      ],
      "name": "setApprovalForAll",
      "outputs": [],
      "stateMutability": "nonpayable",
      "type": "function"
    },
    {
      "inputs": [
        {
          "internalType": "bytes4",
          "name": "interfaceId",
          "type": "bytes4"
        }
      ],
      "name": "supportsInterface",
      "outputs": [
        {
          "internalType": "bool",
          "name": "",
          "type": "bool"
        }
      ],
      "stateMutability": "view",
      "type": "function"
    },
    {
      "inputs": [],
      "name": "symbol",
      "outputs": [
        {
          "internalType": "string",
          "name": "",
          "type": "string"
        }
      ],
      "stateMutability": "view",
      "type": "function"
    },
    {
      "inputs": [
        {
          "internalType": "uint256",
          "name": "tokenId",
          "type": "uint256"
        }
      ],
      "name": "tokenURI",
      "outputs": [
        {
          "internalType": "string",
          "name": "",
          "type": "string"
        }
      ],
      "stateMutability": "view",
      "type": "function"
    },
    {
      "inputs": [],
      "name": "totalSupply",
      "outputs": [
        {
          "internalType": "uint256",
          "name": "",
          "type": "uint256"
        }
      ],
      "stateMutability": "view",
      "type": "function"
    },
    {
      "inputs": [
        {
          "internalType": "address",
          "name": "from",
          "type": "address"
        },
        {
          "internalType": "address",
          "name": "to",
          "type": "address"
        },
        {
          "internalType": "uint256",
          "name": "tokenId",
          "type": "uint256"
        }
      ],
      "name": "transferFrom",
      "outputs": [],
      "stateMutability": "nonpayable",
      "type": "function"
    }
  ],
  "bytecode": "0x60a06040523480156200001157600080fd5b50604051620020a9380380620020a98339810160408190526200003491620001f3565b81816000620000448382620002ec565b506001620000538282620002ec565b5050506000600019604051620000699062000120565b9182526020820152604001604051809103906000f08015801562000091573d6000803e3d6000fd5b50600660006101000a8154816001600160a01b0302191690836001600160a01b031602179055506000600019604051620000cb9062000120565b9182526020820152604001604051809103906000f080158015620000f3573d6000803e3d6000fd5b50600780546001600160a01b0319166001600160a01b0392909216919091179055505033608052620003b8565b6104d78062001bd283390190565b634e487b7160e01b600052604160045260246000fd5b600082601f8301126200015657600080fd5b81516001600160401b03808211156200017357620001736200012e565b604051601f8301601f19908116603f011681019082821181831017156200019e576200019e6200012e565b81604052838152602092508683858801011115620001bb57600080fd5b600091505b83821015620001df5785820183015181830184015290820190620001c0565b600093810190920192909252949350505050565b600080604083850312156200020757600080fd5b82516001600160401b03808211156200021f57600080fd5b6200022d8683870162000144565b935060208501519150808211156200024457600080fd5b50620002538582860162000144565b9150509250929050565b600181811c908216806200027257607f821691505b6020821081036200029357634e487b7160e01b600052602260045260246000fd5b50919050565b601f821115620002e757600081815260208120601f850160051c81016020861015620002c25750805b601f850160051c820191505b81811015620002e357828155600101620002ce565b5050505b505050565b81516001600160401b038111156200030857620003086200012e565b62000320816200031984546200025d565b8462000299565b602080601f8311600181146200035857600084156200033f5750858301515b600019600386901b1c1916600185901b178555620002e3565b600085815260208120601f198616915b82811015620003895788860151825594840194600190910190840162000368565b5085821015620003a85787850151600019600388901b60f8161c191681555b5050505050600190811b01905550565b6080516117f7620003db6000396000818161015201526106ce01526117f76000f3fe608060405234801561001057600080fd5b506004361061010b5760003560e01c806342966c68116100a257806395d89b411161007157806395d89b411461023c578063a22cb46514610244578063b88d4fde14610257578063c87b56dd1461026a578063e985e9c51461027d57600080fd5b806342966c68146101f05780636352211e146102035780636a6278421461021657806370a082311461022957600080fd5b8063095ea7b3116100de578063095ea7b31461019f57806318160ddd146101b457806323b872dd146101ca57806342842e0e146101dd57600080fd5b806301ffc9a71461011057806306fdde0314610138578063075461721461014d578063081812fc1461018c575b600080fd5b61012361011e366004611323565b610290565b60405190151581526020015b60405180910390f35b6101406102e2565b60405161012f9190611390565b6101747f000000000000000000000000000000000000000000000000000000000000000081565b6040516001600160a01b03909116815260200161012f565b61017461019a3660046113a3565b610374565b6101b26101ad3660046113d8565b61039b565b005b6101bc6104b5565b60405190815260200161012f565b6101b26101d8366004611402565b610528565b6101b26101eb366004611402565b610559565b6101b26101fe3660046113a3565b610574565b6101746102113660046113a3565b610661565b6101bc61022436600461143e565b6106c1565b6101bc61023736600461143e565b610926565b6101406109ac565b6101b2610252366004611467565b6109bb565b6101b26102653660046114b4565b6109c6565b6101406102783660046113a3565b6109fe565b61012361028b366004611590565b610a72565b60006001600160e01b031982166380ac58cd60e01b14806102c157506001600160e01b03198216635b5e139f60e01b145b806102dc57506301ffc9a760e01b6001600160e01b03198316145b92915050565b6060600080546102f1906115c3565b80601f016020809104026020016040519081016040528092919081815260200182805461031d906115c3565b801561036a5780601f1061033f5761010080835404028352916020019161036a565b820191906000526020600020905b81548152906001019060200180831161034d57829003601f168201915b5050505050905090565b600061037f82610aa0565b506000908152600460205260409020546001600160a01b031690565b60006103a682610661565b9050806001600160a01b0316836001600160a01b0316036104185760405162461bcd60e51b815260206004820152602160248201527f4552433732313a20617070726f76616c20746f2063757272656e74206f776e656044820152603960f91b60648201526084015b60405180910390fd5b336001600160a01b038216148061043457506104348133610a72565b6104a65760405162461bcd60e51b815260206004820152603d60248201527f4552433732313a20617070726f76652063616c6c6572206973206e6f7420746f60448201527f6b656e206f776e6572206f7220617070726f76656420666f7220616c6c000000606482015260840161040f565b6104b08383610b02565b505050565b60065460408051631b53398f60e21b815290516000926001600160a01b031691636d4ce63c9160048083019260209291908290030181865afa1580156104ff573d6000803e3d6000fd5b505050506040513d601f19601f8201168201806040525081019061052391906115fd565b905090565b6105323382610b70565b61054e5760405162461bcd60e51b815260040161040f90611616565b6104b0838383610bcf565b6104b0838383604051806020016040528060008152506109c6565b61057e3382610b70565b6105e55760405162461bcd60e51b815260206004820152603260248201527f436f6e63757272656e744552433732313a2063616c6c6572206973206e6f74206044820152711bdddb995c881b9bdc88185c1c1c9bdd995960721b606482015260840161040f565b6105ee81610d33565b6006546040516313f72c5360e11b8152600160048201526001600160a01b03909116906327ee58a6906024016020604051808303816000875af1158015610639573d6000803e3d6000fd5b505050506040513d601f19601f8201168201806040525081019061065d9190611663565b5050565b6000818152600260205260408120546001600160a01b0316806102dc5760405162461bcd60e51b8152602060048201526018602482015277115490cdcc8c4e881a5b9d985b1a59081d1bdad95b88125160421b604482015260640161040f565b6000336001600160a01b037f0000000000000000000000000000000000000000000000000000000000000000161461074a5760405162461bcd60e51b815260206004820152602660248201527f436f6e63757272656e744552433732313a2063616c6c6572206973206e6f742060448201526536b4b73a32b960d11b606482015260840161040f565b6001600160a01b0382166107af5760405162461bcd60e51b815260206004820152602660248201527f436f6e63757272656e744552433732313a206d696e7420746f207a65726f206160448201526564647265737360d01b606482015260840161040f565b600754604051630801f16960e11b8152600160048201526001600160a01b0390911690631003e2d2906024016020604051808303816000875af11580156107fa573d6000803e3d6000fd5b505050506040513d601f19601f8201168201806040525081019061081e9190611663565b5060006001600760009054906101000a90046001600160a01b03166001600160a01b0316636d4ce63c6040518163ffffffff1660e01b8152600401602060405180830381865afa158015610876573d6000803e3d6000fd5b505050506040513d601f19601f8201168201806040525081019061089a91906115fd565b6108a49190611680565b90506108b08382610dc8565b600654604051630801f16960e11b8152600160048201526001600160a01b0390911690631003e2d2906024016020604051808303816000875af11580156108fb573d6000803e3d6000fd5b505050506040513d601f19601f8201168201806040525081019061091f9190611663565b5092915050565b60006001600160a01b0382166109905760405162461bcd60e51b815260206004820152602960248201527f4552433732313a2061646472657373207a65726f206973206e6f7420612076616044820152683634b21037bbb732b960b91b606482015260840161040f565b506001600160a01b031660009081526003602052604090205490565b6060600180546102f1906115c3565b61065d338383610de2565b6109d03383610b70565b6109ec5760405162461bcd60e51b815260040161040f90611616565b6109f884848484610eb0565b50505050565b6060610a0982610aa0565b6000610a2060408051602081019091526000815290565b90506000815111610a405760405180602001604052806000815250610a6b565b80610a4a84610ee3565b604051602001610a5b9291906116a1565b6040516020818303038152906040525b9392505050565b6001600160a01b03918216600090815260056020908152604080832093909416825291909152205460ff1690565b6000818152600260205260409020546001600160a01b0316610aff5760405162461bcd60e51b8152602060048201526018602482015277115490cdcc8c4e881a5b9d985b1a59081d1bdad95b88125160421b604482015260640161040f565b50565b600081815260046020526040902080546001600160a01b0319166001600160a01b0384169081179091558190610b3782610661565b6001600160a01b03167f8c5be1e5ebec7d5bd14f71427d1e84f3dd0314c0f7b2291e5b200ac8c7c3b92560405160405180910390a45050565b600080610b7c83610661565b9050806001600160a01b0316846001600160a01b03161480610ba35750610ba38185610a72565b80610bc75750836001600160a01b0316610bbc84610374565b6001600160a01b0316145b949350505050565b826001600160a01b0316610be282610661565b6001600160a01b031614610c085760405162461bcd60e51b815260040161040f906116d0565b6001600160a01b038216610c6a5760405162461bcd60e51b8152602060048201526024808201527f4552433732313a207472616e7366657220746f20746865207a65726f206164646044820152637265737360e01b606482015260840161040f565b826001600160a01b0316610c7d82610661565b6001600160a01b031614610ca35760405162461bcd60e51b815260040161040f906116d0565b600081815260046020908152604080832080546001600160a01b03199081169091556001600160a01b0387811680865260038552838620805460001901905590871680865283862080546001019055868652600290945282852080549092168417909155905184937fddf252ad1be2c89b69c2b068fc378daa952ba7f163c4a11628f55a4df523b3ef91a4505050565b6000610d3e82610661565b9050610d4982610661565b600083815260046020908152604080832080546001600160a01b03199081169091556001600160a01b0385168085526003845282852080546000190190558785526002909352818420805490911690555192935084927fddf252ad1be2c89b69c2b068fc378daa952ba7f163c4a11628f55a4df523b3ef908390a45050565b61065d828260405180602001604052806000815250610f76565b816001600160a01b0316836001600160a01b031603610e435760405162461bcd60e51b815260206004820152601960248201527f4552433732313a20617070726f766520746f2063616c6c657200000000000000604482015260640161040f565b6001600160a01b03838116600081815260056020908152604080832094871680845294825291829020805460ff191686151590811790915591519182527f17307eab39ab6107e8899845ad3d59bd9653f200f220920489ca2b5937696c31910160405180910390a3505050565b610ebb848484610bcf565b610ec784848484610fa9565b6109f85760405162461bcd60e51b815260040161040f90611715565b60606000610ef0836110aa565b600101905060008167ffffffffffffffff811115610f1057610f1061149e565b6040519080825280601f01601f191660200182016040528015610f3a576020820181803683370190505b5090508181016020015b600019016f181899199a1a9b1b9c1cb0b131b232b360811b600a86061a8153600a8504945084610f4457509392505050565b610f808383611182565b610f8d6000848484610fa9565b6104b05760405162461bcd60e51b815260040161040f90611715565b60006001600160a01b0384163b1561109f57604051630a85bd0160e11b81526001600160a01b0385169063150b7a0290610fed903390899088908890600401611767565b6020604051808303816000875af1925050508015611028575060408051601f3d908101601f19168201909252611025918101906117a4565b60015b611085573d808015611056576040519150601f19603f3d011682016040523d82523d6000602084013e61105b565b606091505b50805160000361107d5760405162461bcd60e51b815260040161040f90611715565b805181602001fd5b6001600160e01b031916630a85bd0160e11b149050610bc7565b506001949350505050565b60008072184f03e93ff9f4daa797ed6e38ed64bf6a1f0160401b83106110e95772184f03e93ff9f4daa797ed6e38ed64bf6a1f0160401b830492506040015b6d04ee2d6d415b85acef81000000008310611115576d04ee2d6d415b85acef8100000000830492506020015b662386f26fc10000831061113357662386f26fc10000830492506010015b6305f5e100831061114b576305f5e100830492506008015b612710831061115f57612710830492506004015b60648310611171576064830492506002015b600a83106102dc5760010192915050565b6001600160a01b0382166111d85760405162461bcd60e51b815260206004820181905260248201527f4552433732313a206d696e7420746f20746865207a65726f2061646472657373604482015260640161040f565b6000818152600260205260409020546001600160a01b03161561123d5760405162461bcd60e51b815260206004820152601c60248201527f4552433732313a20746f6b656e20616c7265616479206d696e74656400000000604482015260640161040f565b6000818152600260205260409020546001600160a01b0316156112a25760405162461bcd60e51b815260206004820152601c60248201527f4552433732313a20746f6b656e20616c7265616479206d696e74656400000000604482015260640161040f565b6001600160a01b038216600081815260036020908152604080832080546001019055848352600290915280822080546001600160a01b0319168417905551839291907fddf252ad1be2c89b69c2b068fc378daa952ba7f163c4a11628f55a4df523b3ef908290a45050565b6001600160e01b031981168114610aff57600080fd5b60006020828403121561133557600080fd5b8135610a6b8161130d565b60005b8381101561135b578181015183820152602001611343565b50506000910152565b6000815180845261137c816020860160208601611340565b601f01601f19169290920160200192915050565b602081526000610a6b6020830184611364565b6000602082840312156113b557600080fd5b5035919050565b80356001600160a01b03811681146113d357600080fd5b919050565b600080604083850312156113eb57600080fd5b6113f4836113bc565b946020939093013593505050565b60008060006060848603121561141757600080fd5b611420846113bc565b925061142e602085016113bc565b9150604084013590509250925092565b60006020828403121561145057600080fd5b610a6b826113bc565b8015158114610aff57600080fd5b6000806040838503121561147a57600080fd5b611483836113bc565b9150602083013561149381611459565b809150509250929050565b634e487b7160e01b600052604160045260246000fd5b600080600080608085870312156114ca57600080fd5b6114d3856113bc565b93506114e1602086016113bc565b925060408501359150606085013567ffffffffffffffff8082111561150557600080fd5b818701915087601f83011261151957600080fd5b81358181111561152b5761152b61149e565b604051601f8201601f19908116603f011681019083821181831017156115535761155361149e565b816040528281528a602084870101111561156c57600080fd5b82602086016020830137600060208483010152809550505050505092959194509250565b600080604083850312156115a357600080fd5b6115ac836113bc565b91506115ba602084016113bc565b90509250929050565b600181811c908216806115d757607f821691505b6020821081036115f757634e487b7160e01b600052602260045260246000fd5b50919050565b60006020828403121561160f57600080fd5b5051919050565b6020808252602d908201527f4552433732313a2063616c6c6572206973206e6f7420746f6b656e206f776e6560408201526c1c881bdc88185c1c1c9bdd9959609a1b606082015260800190565b60006020828403121561167557600080fd5b8151610a6b81611459565b818103818111156102dc57634e487b7160e01b600052601160045260246000fd5b600083516116b3818460208801611340565b8351908301906116c7818360208801611340565b01949350505050565b60208082526025908201527f4552433732313a207472616e736665722066726f6d20696e636f72726563742060408201526437bbb732b960d91b606082015260800190565b60208082526032908201527f4552433732313a207472616e7366657220746f206e6f6e20455243373231526560408201527131b2b4bb32b91034b6b83632b6b2b73a32b960711b606082015260800190565b6001600160a01b038581168252841660208201526040810183905260806060820181905260009061179a90830184611364565b9695505050505050565b6000602082840312156117b657600080fd5b8151610a6b8161130d56fea26469706673582212206fc0261c7737aa14b7a8e9b3b0b2853e5bbef82428ca339fab10b4b551e77be264736f6c63430008130033608060405234801561001057600080fd5b506040516104d73803806104d783398101604081905261002f916100d9565b604051602481018390526044810182905260009060859060640160408051601f198184030181529181526020820180516001600160e01b0316630719126760e21b1790525161007e91906100fd565b6000604051808303816000865af19150503d80600081146100bb576040519150601f19603f3d011682016040523d82523d6000602084013e6100c0565b606091505b50509050806100d1576100d161012c565b505050610142565b600080604083850312156100ec57600080fd5b505080516020909101519092909150565b6000825160005b8181101561011e5760208186018101518583015201610104565b506000920191825250919050565b634e487b7160e01b600052600160045260246000fd5b610386806101516000396000f3fe608060405234801561001057600080fd5b50600436106100625760003560e01c80631003e2d21461006757806327ee58a61461008f5780636ac5db19146100a25780636d4ce63c146100b85780637d7b0099146100c0578063f8897945146100e0575b600080fd5b61007a6100753660046102ef565b6100e8565b60405190151581526020015b60405180910390f35b61007a61009d3660046102ef565b61018a565b6100aa6101e0565b604051908152602001610086565b6100aa610279565b6100c8608581565b6040516001600160a01b039091168152602001610086565b6100aa6102b4565b60008060856001600160a01b03168360405160240161010991815260200190565b60408051601f198184030181529181526020820180516001600160e01b0316630801f16960e11b1790525161013e9190610308565b6000604051808303816000865af19150503d806000811461017b576040519150601f19603f3d011682016040523d82523d6000602084013e610180565b606091505b5090949350505050565b60008060856001600160a01b0316836040516024016101ab91815260200190565b60408051601f198184030181529181526020820180516001600160e01b03166313f72c5360e11b1790525161013e9190610308565b60408051600481526024810182526020810180516001600160e01b0316636ac5db1960e01b1790529051600091829160859161021b91610308565b600060405180830381855afa9150503d8060008114610256576040519150601f19603f3d011682016040523d82523d6000602084013e61025b565b606091505b50915050808060200190518101906102739190610337565b91505090565b60408051600481526024810182526020810180516001600160e01b0316631b53398f60e21b1790529051600091829160859161021b91610308565b60408051600481526024810182526020810180516001600160e01b031663f889794560e01b1790529051600091829160859161021b91610308565b60006020828403121561030157600080fd5b5035919050565b6000825160005b81811015610329576020818601810151858301520161030f565b506000920191825250919050565b60006020828403121561034957600080fd5b505191905056fea264697066735822122028b7a1106818c5b938450f8172669c8a5163b651a5c3fa19a3cb7daa0184c7be64736f6c63430008130033",
  "linkReferences": {},
  "deployedLinkReferences": {},
  "immutableReferences": {
    "2870": [
      {
        "length": 32,
        "start": 338
      },
      {
        "length": 32,
        "start": 1742
      }
    ]
  },
  "inputSourceName": "project/contracts/ConcurrentERC721.sol",
  "buildInfoId": "solc-0_8_19-a338130e69e2bcf24d29382d6a5f1d9c4f4d64af"
}