{
  "_format": "hh3-artifact-1",
  "contractName": "TicketingCore",
  "sourceName": "contracts/TicketingCore.sol",
  "abi": [
    {
      "inputs": [
        {
          "internalType": "address",
          "name": "_paymentToken",
          "type": "address"
        }
      ],
      "stateMutability": "nonpayable",
      "type": "constructor"
    },
    {
      "anonymous": false,
      "inputs": [
        {
          "indexed": true,
          "internalType": "uint256",
          "name": "eventId",
          "type": "uint256"
        },
        {
          "indexed": false,
          "internalType": "string",
          "name": "name",
          "type": "string"
        },
        {
          "indexed": false,
          "internalType": "string",
          "name": "venue",
          "type": "string"
        },
        {
          "indexed": false,
          "internalType": "uint256",
          "name": "timestamp",
          "type": "uint256"
        },
        {
          "indexed": true,
          "internalType": "address",
          "name": "organizer",
          "type": "address"
        },
        {
          "indexed": false,
          "internalType": "uint256",
          "name": "tierCount",
          "type": "uint256"
        }
      ],
      "name": "EventCreated",
      "type": "event"
    },
    {
      "anonymous": false,
      "inputs": [
        {
          "indexed": true,
          "internalType": "uint256",
          "name": "eventId",
          "type": "uint256"
        },
        {
          "indexed": true,
          "internalType": "address",
          "name": "organizer",
          "type": "address"
        },
        {
          "indexed": false,
          "internalType": "uint256",
          "name": "amount",
          "type": "uint256"
        }
      ],
      "name": "RevenueWithdrawn",
      "type": "event"
    },
    {
      "anonymous": false,
      "inputs": [
        {
          "indexed": true,
          "internalType": "uint256",
          "name": "eventId",
          "type": "uint256"
        },
        {
          "indexed": true,
          "internalType": "uint256",
          "name": "tierIdx",
          "type": "uint256"
        },
        {
          "indexed": true,
          "internalType": "address",
          "name": "buyer",
          "type": "address"
        },
        {
          "indexed": false,
          "internalType": "uint256",
          "name": "tokenId",
          "type": "uint256"
        },
        {
          "indexed": false,
          "internalType": "uint256",
          "name": "price",
          "type": "uint256"
        }
      ],
      "name": "TicketPurchased",
      "type": "event"
    },
    {
      "anonymous": false,
      "inputs": [
        {
          "indexed": true,
          "internalType": "uint256",
          "name": "eventId",
          "type": "uint256"
        },
        {
          "indexed": true,
          "internalType": "uint256",
          "name": "tierIdx",
          "type": "uint256"
        },
        {
          "indexed": true,
          "internalType": "address",
          "name": "buyer",
          "type": "address"
        },
        {
          "indexed": false,
          "internalType": "uint256",
          "name": "tokenId",
          "type": "uint256"
        },
        {
          "indexed": false,
          "internalType": "uint256",
          "name": "refundAmount",
          "type": "uint256"
        }
      ],
      "name": "TicketRefunded",
      "type": "event"
    },
    {
      "inputs": [
        {
          "internalType": "uint256",
          "name": "eventId",
          "type": "uint256"
        }
      ],
      "name": "canRefund",
      "outputs": [
        {
          "internalType": "bool",
          "name": "",
          "type": "bool"
        }
      ],
      "stateMutability": "view",
      "type": "function"
    },
    {
      "inputs": [
        {
          "internalType": "string",
          "name": "name",
          "type": "string"
        },
        {
          "internalType": "string",
          "name": "venue",
          "type": "string"
        },
        {
          "internalType": "uint256",
          "name": "timestamp",
          "type": "uint256"
        },
        {
          "components": [
            {
              "internalType": "string",
              "name": "name",
              "type": "string"
            },
            {
              "internalType": "uint256",
              "name": "capacity",
              "type": "uint256"
            },
            {
              "internalType": "uint256",
              "name": "price",
              "type": "uint256"
            }
          ],
          "internalType": "struct TicketingCore.TierConfig[]",
          "name": "tierConfigs",
          "type": "tuple[]"
        }
      ],
      "name": "createEvent",
      "outputs": [
        {
          "internalType": "uint256",
          "name": "eventId",
          "type": "uint256"
        }
      ],
      "stateMutability": "nonpayable",
      "type": "function"
    },
    {
      "inputs": [
        {
          "internalType": "uint256",
          "name": "eventId",
          "type": "uint256"
        }
      ],
      "name": "getAvailableRevenue",
      "outputs": [
        {
          "internalType": "uint256",
          "name": "",
          "type": "uint256"
        }
      ],
      "stateMutability": "view",
      "type": "function"
    },
    {
      "inputs": [
        {
          "internalType": "uint256",
          "name": "eventId",
          "type": "uint256"
        }
      ],
      "name": "getEventDetails",
      "outputs": [
        {
          "components": [
            {
              "internalType": "uint256",
              "name": "id",
              "type": "uint256"
            },
            {
              "internalType": "string",
              "name": "name",
              "type": "string"
            },
            {
              "internalType": "string",
              "name": "venue",
              "type": "string"
            },
            {
              "internalType": "uint256",
              "name": "timestamp",
              "type": "uint256"
            },
            {
              "internalType": "address",
              "name": "organizer",
              "type": "address"
            },
            {
              "components": [
                {
                  "internalType": "string",
                  "name": "name",
                  "type": "string"
                },
                {
                  "internalType": "uint256",
                  "name": "capacity",
                  "type": "uint256"
                },
                {
                  "internalType": "uint256",
                  "name": "price",
                  "type": "uint256"
                },
                {
                  "internalType": "address",
                  "name": "nftContract",
                  "type": "address"
                }
              ],
              "internalType": "struct TicketingCore.Tier[]",
              "name": "tiers",
              "type": "tuple[]"
            }
          ],
          "internalType": "struct TicketingCore.Event",
          "name": "",
          "type": "tuple"
        }
      ],
      "stateMutability": "view",
      "type": "function"
    },
    {
      "inputs": [
        {
          "internalType": "uint256",
          "name": "eventId",
          "type": "uint256"
        }
      ],
      "name": "getRefundDeadline",
      "outputs": [
        {
          "internalType": "uint256",
          "name": "",
          "type": "uint256"
        }
      ],
      "stateMutability": "view",
      "type": "function"
    },
    {
      "inputs": [
        {
          "internalType": "uint256",
          "name": "eventId",
          "type": "uint256"
        },
        {
          "internalType": "uint256",
          "name": "tierIdx",
          "type": "uint256"
        }
      ],
      "name": "getTierAvailability",
      "outputs": [
        {
          "internalType": "uint256",
          "name": "sold",
          "type": "uint256"
        },
        {
          "internalType": "uint256",
          "name": "capacity",
          "type": "uint256"
        }
      ],
      "stateMutability": "view",
      "type": "function"
    },
    {
      "inputs": [],
      "name": "paymentToken",
      "outputs": [
        {
          "internalType": "contract ConcurrentERC20",
          "name": "",
          "type": "address"
        }
      ],
      "stateMutability": "view",
      "type": "function"
    },
    {
      "inputs": [
        {
          "internalType": "uint256",
          "name": "eventId",
          "type": "uint256"
        },
        {
          "internalType": "uint256",
          "name": "tierIdx",
          "type": "uint256"
        }
      ],
      "name": "purchaseTicket",
      "outputs": [
        {
          "internalType": "uint256",
          "name": "tokenId",
          "type": "uint256"
        }
      ],
      "stateMutability": "nonpayable",
      "type": "function"
    },
    {
      "inputs": [
        {
          "internalType": "uint256",
          "name": "eventId",
          "type": "uint256"
        },
        {
          "internalType": "uint256",
          "name": "tierIdx",
          "type": "uint256"
        },
        {
          "internalType": "uint256",
          "name": "tokenId",
          "type": "uint256"
        }
      ],
      "name": "refundTicket",
      "outputs": [],
      "stateMutability": "nonpayable",
      "type": "function"
    },
    {
      "inputs": [
        {
          "internalType": "uint256",
          "name": "eventId",
          "type": "uint256"
        },
        {
          "internalType": "uint256",
          "name": "amount",
          "type": "uint256"
        }
      ],
      "name": "withdrawRevenue",
      "outputs": [],
      "stateMutability": "nonpayable",
      "type": "function"
    }
  ],
  "bytecode": "0x60a060405234801561001057600080fd5b5060405162005e6338038062005e63833981016040819052610031916100ba565b60016000556001600160a01b0381166100a55760405162461bcd60e51b815260206004820152602c60248201527f5469636b6574696e67436f72653a207061796d656e7420746f6b656e2069732060448201526b7a65726f206164647265737360a01b606482015260840160405180910390fd5b6001600160a01b0316608052600180556100ea565b6000602082840312156100cc57600080fd5b81516001600160a01b03811681146100e357600080fd5b9392505050565b608051615d496200011a6000396000818160f9015281816103d701528181610e4801526111160152615d496000f3fe60806040523480156200001157600080fd5b5060043610620000ab5760003560e01c8063b45902a6116200006e578063b45902a61462000162578063bdbbb0cb146200018f578063e5496fc814620001a6578063ec38d5a014620001bd578063fc8cc92b14620001e357600080fd5b8063295fae9614620000b05780632bb23f7c14620000c95780633013ce2914620000f3578063383f4f7914620001345780639cb0b0d6146200014b575b600080fd5b620000c7620000c1366004620017bf565b6200020b565b005b620000e0620000da366004620018cf565b62000497565b6040519081526020015b60405180910390f35b6200011b7f000000000000000000000000000000000000000000000000000000000000000081565b6040516001600160a01b039091168152602001620000ea565b620000e06200014536600462001a45565b62000a1e565b620000c76200015c36600462001a5f565b62000acf565b6200017962000173366004620017bf565b62000f27565b60408051928352602083019190915201620000ea565b620000e0620001a0366004620017bf565b62001053565b620000e0620001b736600462001a45565b6200137e565b620001d4620001ce36600462001a45565b620013cf565b604051620000ea919062001ad4565b620001fa620001f436600462001a45565b62001705565b6040519015158152602001620000ea565b6200021562001748565b60008281526002602052604081205490036200024e5760405162461bcd60e51b8152600401620002459062001bda565b60405180910390fd5b600082815260026020526040902060048101546001600160a01b03163314620002c95760405162461bcd60e51b815260206004820152602660248201527f5469636b6574696e67436f72653a2063616c6c6572206973206e6f74206f726760448201526530b734bd32b960d11b606482015260840162000245565b620002d4836200137e565b4210156200033b5760405162461bcd60e51b815260206004820152602d60248201527f5469636b6574696e67436f72653a20726566756e6420646561646c696e65206860448201526c185cc81b9bdd081c185cdcd959609a1b606482015260840162000245565b600083815260036020526040908190205490516313f72c5360e11b8152600481018490526001600160a01b03909116906327ee58a6906024016020604051808303816000875af115801562000394573d6000803e3d6000fd5b505050506040513d601f19601f82011682018060405250810190620003ba919062001c1d565b5060405163a9059cbb60e01b8152336004820152602481018390527f00000000000000000000000000000000000000000000000000000000000000006001600160a01b03169063a9059cbb906044016020604051808303816000875af115801562000429573d6000803e3d6000fd5b505050506040513d601f19601f820116820180604052508101906200044f919062001c1d565b50604051828152339084907f841fbab03327efe47fb7d133055c9aa87df38ff76b5919d1c190e0067c5e34b39060200160405180910390a350620004936001600055565b5050565b6000620004a74261a8c062001c5e565b8311620005105760405162461bcd60e51b815260206004820152603060248201527f5469636b6574696e67436f72653a206576656e74206d757374206265203e313260448201526f20686f75727320696e2066757475726560801b606482015260840162000245565b6000825111620005735760405162461bcd60e51b815260206004820152602760248201527f5469636b6574696e67436f72653a206174206c65617374203120746965722072604482015266195c5d5a5c995960ca1b606482015260840162000245565b600582511115620005d65760405162461bcd60e51b815260206004820152602660248201527f5469636b6574696e67436f72653a206d61782035207469657273207265636f6d6044820152651b595b99195960d21b606482015260840162000245565b60018054906000620005e88362001c74565b9091555060008181526002602052604090208181559091506001810162000610878262001d1e565b506002810162000621868262001d1e565b50600381018490556004810180546001600160a01b03191633179055604051600090600019906200065290620017a3565b9182526020820152604001604051809103906000f0801580156200067a573d6000803e3d6000fd5b50600083815260036020526040812080546001600160a01b0319166001600160a01b0393909316929092179091555b8351811015620009c9576000848281518110620006ca57620006ca62001deb565b6020026020010151905060008160200151116200073b5760405162461bcd60e51b815260206004820152602860248201527f5469636b6574696e67436f72653a2074696572206361706163697479206d7573604482015267074206265203e20360c41b606482015260840162000245565b8051516200079d5760405162461bcd60e51b815260206004820152602860248201527f5469636b6574696e67436f72653a2074696572206e616d652063616e6e6f7420604482015267626520656d70747960c01b606482015260840162000245565b60005b828110156200085257816000015180519060200120868281518110620007ca57620007ca62001deb565b60200260200101516000015180519060200120036200083d5760405162461bcd60e51b815260206004820152602860248201527f5469636b6574696e67436f72653a2074696572206e616d6573206d75737420626044820152676520756e6971756560c01b606482015260840162000245565b80620008498162001c74565b915050620007a0565b50600081600001516040516200086890620017b1565b62000874919062001e01565b604051809103906000f08015801562000891573d6000803e3d6000fd5b5060408051608081018252845181526020808601518183015285830151928201929092526001600160a01b03831660608201526005870180546001810182556000918252929020815193945090928392600402909101908190620008f6908262001d1e565b50602082015181600101556040820151816002015560608201518160030160006101000a8154816001600160a01b0302191690836001600160a01b031602179055505050600083602001516040516200094f90620017a3565b9182526020820152604001604051809103906000f08015801562000977573d6000803e3d6000fd5b506000878152600460209081526040808320888452909152902080546001600160a01b0319166001600160a01b039290921691909117905550829150620009c090508162001c74565b915050620006a9565b50336001600160a01b0316827f4a0b0efa8e9f694b45ac98bcb8a5e362fa1094aee31f437777f7ab8d93468d01888888885160405162000a0d949392919062001e3e565b60405180910390a350949350505050565b600081815260026020526040812054810362000a4e5760405162461bcd60e51b8152600401620002459062001bda565b600082815260036020908152604091829020548251631b53398f60e21b815292516001600160a01b0390911692636d4ce63c9260048083019391928290030181865afa15801562000aa3573d6000803e3d6000fd5b505050506040513d601f19601f8201168201806040525081019062000ac9919062001e7b565b92915050565b62000ad962001748565b600083815260026020526040812054900362000b095760405162461bcd60e51b8152600401620002459062001bda565b600083815260026020526040902062000b22846200137e565b421062000b845760405162461bcd60e51b815260206004820152602960248201527f5469636b6574696e67436f72653a20726566756e6420646561646c696e652068604482015268185cc81c185cdcd95960ba1b606482015260840162000245565b6005810154831062000baa5760405162461bcd60e51b8152600401620002459062001e95565b600081600501848154811062000bc45762000bc462001deb565b6000918252602090912060049182020160038101546040516331a9108f60e11b81529283018690529092506001600160a01b03169033908290636352211e906024016020604051808303816000875af115801562000c26573d6000803e3d6000fd5b505050506040513d601f19601f8201168201806040525081019062000c4c919062001ed6565b6001600160a01b03161462000cb35760405162461bcd60e51b815260206004820152602660248201527f5469636b6574696e67436f72653a2063616c6c6572206973206e6f74204e46546044820152651037bbb732b960d11b606482015260840162000245565b604051630852cd8d60e31b8152600481018590526001600160a01b038216906342966c6890602401600060405180830381600087803b15801562000cf657600080fd5b505af115801562000d0b573d6000803e3d6000fd5b50505060008781526004602081815260408084208a8552909152918290205491516313f72c5360e11b81526001600160a01b0390921692506327ee58a69162000d5b916001910190815260200190565b6020604051808303816000875af115801562000d7b573d6000803e3d6000fd5b505050506040513d601f19601f8201168201806040525081019062000da1919062001c1d565b506000868152600360205260409081902054600284015491516313f72c5360e11b815260048101929092526001600160a01b0316906327ee58a6906024016020604051808303816000875af115801562000dff573d6000803e3d6000fd5b505050506040513d601f19601f8201168201806040525081019062000e25919062001c1d565b50600282015460405163a9059cbb60e01b815233600482015260248101919091527f00000000000000000000000000000000000000000000000000000000000000006001600160a01b03169063a9059cbb906044016020604051808303816000875af115801562000e9a573d6000803e3d6000fd5b505050506040513d601f19601f8201168201806040525081019062000ec0919062001c1d565b50336001600160a01b031685877fdd023f0b10bc7d59c1b46c78ec8cee11553590d9c8b53ec1399516b36bf32c3687866002015460405162000f0c929190918252602082015260400190565b60405180910390a450505062000f226001600055565b505050565b6000828152600260205260408120548190810362000f595760405162461bcd60e51b8152600401620002459062001bda565b600084815260026020526040902060050154831062000f8c5760405162461bcd60e51b8152600401620002459062001e95565b600084815260026020526040812060050180548590811062000fb25762000fb262001deb565b60009182526020808320888452600480835260408086208a8752845294859020548551631b53398f60e21b8152955194820290920195506001600160a01b0390911693636d4ce63c93818301939290918290030181865afa1580156200101c573d6000803e3d6000fd5b505050506040513d601f19601f8201168201806040525081019062001042919062001e7b565b816001015492509250509250929050565b60006200105f62001748565b60008381526002602052604081205490036200108f5760405162461bcd60e51b8152600401620002459062001bda565b600083815260026020526040902060058101548310620010c35760405162461bcd60e51b8152600401620002459062001e95565b6000816005018481548110620010dd57620010dd62001deb565b6000918252602090912060049182020160028101546040516323b872dd60e01b81523393810193909352306024840152604483015291507f00000000000000000000000000000000000000000000000000000000000000006001600160a01b0316906323b872dd906064016020604051808303816000875af115801562001168573d6000803e3d6000fd5b505050506040513d601f19601f820116820180604052508101906200118e919062001c1d565b50600085815260046020818152604080842088855290915291829020549151630801f16960e11b81526001600160a01b0390921691631003e2d291620011db916001910190815260200190565b6020604051808303816000875af1158015620011fb573d6000803e3d6000fd5b505050506040513d601f19601f8201168201806040525081019062001221919062001c1d565b50600085815260036020526040908190205460028301549151630801f16960e11b815260048101929092526001600160a01b031690631003e2d2906024016020604051808303816000875af11580156200127f573d6000803e3d6000fd5b505050506040513d601f19601f82011682018060405250810190620012a5919062001c1d565b5060038101546040516335313c2160e11b81523360048201526001600160a01b03909116908190636a627842906024016020604051808303816000875af1158015620012f5573d6000803e3d6000fd5b505050506040513d601f19601f820116820180604052508101906200131b919062001e7b565b9350336001600160a01b031685877fa33fd280cea731ca97b5809baf2022a90a86ce6f6cc8a8b6223a1d18f058289c87866002015460405162001368929190918252602082015260400190565b60405180910390a450505062000ac96001600055565b6000818152600260205260408120548103620013ae5760405162461bcd60e51b8152600401620002459062001bda565b60008281526002602052604090206003015462000ac99061a8c09062001f01565b620014126040518060c001604052806000815260200160608152602001606081526020016000815260200160006001600160a01b03168152602001606081525090565b6000828152600260205260408120549003620014425760405162461bcd60e51b8152600401620002459062001bda565b600260008381526020019081526020016000206040518060c0016040529081600082015481526020016001820180546200147c9062001c90565b80601f0160208091040260200160405190810160405280929190818152602001828054620014aa9062001c90565b8015620014fb5780601f10620014cf57610100808354040283529160200191620014fb565b820191906000526020600020905b815481529060010190602001808311620014dd57829003601f168201915b50505050508152602001600282018054620015169062001c90565b80601f0160208091040260200160405190810160405280929190818152602001828054620015449062001c90565b8015620015955780601f10620015695761010080835404028352916020019162001595565b820191906000526020600020905b8154815290600101906020018083116200157757829003601f168201915b50505050508152602001600382015481526020016004820160009054906101000a90046001600160a01b03166001600160a01b03166001600160a01b0316815260200160058201805480602002602001604051908101604052809291908181526020016000905b82821015620016f75783829060005260206000209060040201604051806080016040529081600082018054620016329062001c90565b80601f0160208091040260200160405190810160405280929190818152602001828054620016609062001c90565b8015620016b15780601f106200168557610100808354040283529160200191620016b1565b820191906000526020600020905b8154815290600101906020018083116200169357829003601f168201915b5050509183525050600182810154602080840191909152600284015460408401526003909301546001600160a01b031660609092019190915291835292019101620015fc565b505050915250909392505050565b6000818152600260205260408120548103620017355760405162461bcd60e51b8152600401620002459062001bda565b62001740826200137e565b421092915050565b6002600054036200179c5760405162461bcd60e51b815260206004820152601f60248201527f5265656e7472616e637947756172643a207265656e7472616e742063616c6c00604482015260640162000245565b6002600055565b6104d78062001f1883390190565b61392580620023ef83390190565b60008060408385031215620017d357600080fd5b50508035926020909101359150565b634e487b7160e01b600052604160045260246000fd5b6040516060810167ffffffffffffffff811182821017156200181e576200181e620017e2565b60405290565b604051601f8201601f1916810167ffffffffffffffff81118282101715620018505762001850620017e2565b604052919050565b600082601f8301126200186a57600080fd5b813567ffffffffffffffff811115620018875762001887620017e2565b6200189c601f8201601f191660200162001824565b818152846020838601011115620018b257600080fd5b816020850160208301376000918101602001919091529392505050565b60008060008060808587031215620018e657600080fd5b67ffffffffffffffff8086351115620018fe57600080fd5b6200190d878735880162001858565b94506020860135818111156200192257600080fd5b620019308882890162001858565b945050604086013592506060860135818111156200194d57600080fd5b8601601f810188136200195f57600080fd5b803582811115620019745762001974620017e2565b6200198560208260051b0162001824565b8082825260208201915060208360051b85010192508a831115620019a857600080fd5b602084015b8381101562001a35578581351115620019c557600080fd5b803585016060818e03601f19011215620019de57600080fd5b620019e8620017f8565b602082013588811115620019fb57600080fd5b62001a0c8f60208386010162001858565b8252506040828101356020808401919091526060909301359082015284529283019201620019ad565b50979a9699509497505050505050565b60006020828403121562001a5857600080fd5b5035919050565b60008060006060848603121562001a7557600080fd5b505081359360208301359350604090920135919050565b6000815180845260005b8181101562001ab45760208185018101518683018201520162001a96565b506000602082860101526020601f19601f83011685010191505092915050565b6000602080835283518184015280840151604060c08186015262001afc60e086018362001a8c565b915080860151601f19606081888603018189015262001b1c858462001a8c565b8982015160808a810191909152808b01516001600160a01b0390811660a0808d01919091528c01518b8403860160c08d0152805180855293985089019550909188880190600581901b89018a0160005b8281101562001bc857878b83030184528851805187845262001b918885018262001a8c565b90508d8201518e8501528b8201518c8501528689830151168985015280935050508b890198508b8401935060018101905062001b6c565b509d9c50505050505050505050505050565b60208082526023908201527f5469636b6574696e67436f72653a206576656e7420646f6573206e6f742065786040820152621a5cdd60ea1b606082015260800190565b60006020828403121562001c3057600080fd5b8151801515811462001c4157600080fd5b9392505050565b634e487b7160e01b600052601160045260246000fd5b8082018082111562000ac95762000ac962001c48565b60006001820162001c895762001c8962001c48565b5060010190565b600181811c9082168062001ca557607f821691505b60208210810362001cc657634e487b7160e01b600052602260045260246000fd5b50919050565b601f82111562000f2257600081815260208120601f850160051c8101602086101562001cf55750805b601f850160051c820191505b8181101562001d165782815560010162001d01565b505050505050565b815167ffffffffffffffff81111562001d3b5762001d3b620017e2565b62001d538162001d4c845462001c90565b8462001ccc565b602080601f83116001811462001d8b576000841562001d725750858301515b600019600386901b1c1916600185901b17855562001d16565b600085815260208120601f198616915b8281101562001dbc5788860151825594840194600190910190840162001d9b565b508582101562001ddb5787850151600019600388901b60f8161c191681555b5050505050600190811b01905550565b634e487b7160e01b600052603260045260246000fd5b60408152600062001e16604083018462001a8c565b82810360208401526006815265151250d2d15560d21b60208201526040810191505092915050565b60808152600062001e53608083018762001a8c565b828103602084015262001e67818762001a8c565b604084019590955250506060015292915050565b60006020828403121562001e8e57600080fd5b5051919050565b60208082526021908201527f5469636b6574696e67436f72653a20696e76616c6964207469657220696e64656040820152600f60fb1b606082015260800190565b60006020828403121562001ee957600080fd5b81516001600160a01b038116811462001c4157600080fd5b8181038181111562000ac95762000ac962001c4856fe608060405234801561001057600080fd5b506040516104d73803806104d783398101604081905261002f916100d9565b604051602481018390526044810182905260009060859060640160408051601f198184030181529181526020820180516001600160e01b0316630719126760e21b1790525161007e91906100fd565b6000604051808303816000865af19150503d80600081146100bb576040519150601f19603f3d011682016040523d82523d6000602084013e6100c0565b606091505b50509050806100d1576100d161012c565b505050610142565b600080604083850312156100ec57600080fd5b505080516020909101519092909150565b6000825160005b8181101561011e5760208186018101518583015201610104565b506000920191825250919050565b634e487b7160e01b600052600160045260246000fd5b610386806101516000396000f3fe608060405234801561001057600080fd5b50600436106100625760003560e01c80631003e2d21461006757806327ee58a61461008f5780636ac5db19146100a25780636d4ce63c146100b85780637d7b0099146100c0578063f8897945146100e0575b600080fd5b61007a6100753660046102ef565b6100e8565b60405190151581526020015b60405180910390f35b61007a61009d3660046102ef565b61018a565b6100aa6101e0565b604051908152602001610086565b6100aa610279565b6100c8608581565b6040516001600160a01b039091168152602001610086565b6100aa6102b4565b60008060856001600160a01b03168360405160240161010991815260200190565b60408051601f198184030181529181526020820180516001600160e01b0316630801f16960e11b1790525161013e9190610308565b6000604051808303816000865af19150503d806000811461017b576040519150601f19603f3d011682016040523d82523d6000602084013e610180565b606091505b5090949350505050565b60008060856001600160a01b0316836040516024016101ab91815260200190565b60408051601f198184030181529181526020820180516001600160e01b03166313f72c5360e11b1790525161013e9190610308565b60408051600481526024810182526020810180516001600160e01b0316636ac5db1960e01b1790529051600091829160859161021b91610308565b600060405180830381855afa9150503d8060008114610256576040519150601f19603f3d011682016040523d82523d6000602084013e61025b565b606091505b50915050808060200190518101906102739190610337565b91505090565b60408051600481526024810182526020810180516001600160e01b0316631b53398f60e21b1790529051600091829160859161021b91610308565b60408051600481526024810182526020810180516001600160e01b031663f889794560e01b1790529051600091829160859161021b91610308565b60006020828403121561030157600080fd5b5035919050565b6000825160005b81811015610329576020818601810151858301520161030f565b506000920191825250919050565b60006020828403121561034957600080fd5b505191905056fea264697066735822122028b7a1106818c5b938450f8172669c8a5163b651a5c3fa19a3cb7daa0184c7be64736f6c6343000813003360a06040523480156200001157600080fd5b5060405162003925380380620039258339810160408190526200003491620001ed565b6000620000428382620002e6565b506001620000518282620002e6565b5060405162000060906200010c565b604051809103906000f0801580156200007d573d6000803e3d6000fd5b50600260006101000a8154816001600160a01b0302191690836001600160a01b031602179055506000600019604051620000b7906200011a565b9182526020820152604001604051809103906000f080158015620000df573d6000803e3d6000fd5b50600480546001600160a01b0319166001600160a01b0392909216919091179055505033608052620003b2565b6111a580620022a983390190565b6104d7806200344e83390190565b634e487b7160e01b600052604160045260246000fd5b600082601f8301126200015057600080fd5b81516001600160401b03808211156200016d576200016d62000128565b604051601f8301601f19908116603f0116810190828211818310171562000198576200019862000128565b81604052838152602092508683858801011115620001b557600080fd5b600091505b83821015620001d95785820183015181830184015290820190620001ba565b600093810190920192909252949350505050565b600080604083850312156200020157600080fd5b82516001600160401b03808211156200021957600080fd5b62000227868387016200013e565b935060208501519150808211156200023e57600080fd5b506200024d858286016200013e565b9150509250929050565b600181811c908216806200026c57607f821691505b6020821081036200028d57634e487b7160e01b600052602260045260246000fd5b50919050565b601f821115620002e157600081815260208120601f850160051c81016020861015620002bc5750805b601f850160051c820191505b81811015620002dd57828155600101620002c8565b5050505b505050565b81516001600160401b0381111562000302576200030262000128565b6200031a8162000313845462000257565b8462000293565b602080601f831160018114620003525760008415620003395750858301515b600019600386901b1c1916600185901b178555620002dd565b600085815260208120601f198616915b82811015620003835788860151825594840194600190910190840162000362565b5085821015620003a25787850151600019600388901b60f8161c191681555b5050505050600190811b01905550565b608051611ed4620003d5600039600081816101710152610da10152611ed46000f3fe60806040523480156200001157600080fd5b5060043610620001215760003560e01c806342966c6811620000af57806395d89b41116200007a57806395d89b41146200027f578063a22cb4651462000289578063b88d4fde14620002a0578063c87b56dd14620002b7578063e985e9c514620002db57600080fd5b806342966c6814620002235780636352211e146200023a5780636a627842146200025157806370a08231146200026857600080fd5b8063095ea7b311620000f0578063095ea7b314620001c357806318160ddd14620001dc57806323b872dd14620001f557806342842e0e146200020c57600080fd5b806301ffc9a7146200012657806306fdde03146200015257806307546172146200016b578063081812fc14620001ac575b600080fd5b6200013d62000137366004620015a1565b620002f2565b60405190151581526020015b60405180910390f35b6200015c62000346565b6040516200014991906200161c565b620001937f000000000000000000000000000000000000000000000000000000000000000081565b6040516001600160a01b03909116815260200162000149565b62000193620001bd36600462001631565b620003e0565b620001da620001d436600462001668565b6200047a565b005b620001e6620005fa565b60405190815260200162000149565b620001da6200020636600462001695565b6200067b565b620001da6200021d36600462001695565b62000a42565b620001da6200023436600462001631565b62000a64565b620001936200024b36600462001631565b62000ca7565b620001e662000262366004620016d6565b62000d94565b620001e662000279366004620016d6565b620010c4565b6200015c620011dc565b620001da6200029a36600462001703565b620011ed565b620001da620002b136600462001755565b620012bf565b6200015c620002c836600462001631565b5060408051602081019091526000815290565b6200013d620002ec3660046200183f565b620013ed565b60006001600160e01b031982166380ac58cd60e01b14806200032457506001600160e01b03198216635b5e139f60e01b145b806200034057506001600160e01b031982166301ffc9a760e01b145b92915050565b606060008054620003579062001877565b80601f0160208091040260200160405190810160405280929190818152602001828054620003859062001877565b8015620003d65780601f10620003aa57610100808354040283529160200191620003d6565b820191906000526020600020905b815481529060010190602001808311620003b857829003601f168201915b5050505050905090565b6000620003ed826200141b565b6200045e5760405162461bcd60e51b815260206004820152603660248201527f436f6e63757272656e744552433732313a20617070726f766564207175657279604482015275103337b9103737b732bc34b9ba32b73a103a37b5b2b760511b60648201526084015b60405180910390fd5b506000908152600560205260409020546001600160a01b031690565b6000620004878262000ca7565b9050806001600160a01b0316836001600160a01b031603620005005760405162461bcd60e51b815260206004820152602b60248201527f436f6e63757272656e744552433732313a20617070726f76616c20746f20637560448201526a393932b73a1037bbb732b960a91b606482015260840162000455565b336001600160a01b03821614806200051f57506200051f8133620013ed565b6200059e5760405162461bcd60e51b815260206004820152604260248201527f436f6e63757272656e744552433732313a20617070726f76652063616c6c657260448201527f206973206e6f74206f776e6572206e6f7220617070726f76656420666f7220616064820152611b1b60f21b608482015260a40162000455565b60008281526005602052604080822080546001600160a01b0319166001600160a01b0387811691821790925591518593918516917f8c5be1e5ebec7d5bd14f71427d1e84f3dd0314c0f7b2291e5b200ac8c7c3b92591a4505050565b6000600460009054906101000a90046001600160a01b03166001600160a01b0316636d4ce63c6040518163ffffffff1660e01b8152600401602060405180830381865afa15801562000650573d6000803e3d6000fd5b505050506040513d601f19601f82011682018060405250810190620006769190620018b3565b905090565b6000620006888262000ca7565b9050836001600160a01b0316816001600160a01b031614620007055760405162461bcd60e51b815260206004820152602f60248201527f436f6e63757272656e744552433732313a207472616e736665722066726f6d2060448201526e34b731b7b93932b1ba1037bbb732b960891b606482015260840162000455565b6200071233838362001496565b620007865760405162461bcd60e51b815260206004820152603b60248201527f436f6e63757272656e744552433732313a207472616e736665722063616c6c6560448201527f72206973206e6f74206f776e6572206e6f7220617070726f7665640000000000606482015260840162000455565b6001600160a01b038316620007f15760405162461bcd60e51b815260206004820152602a60248201527f436f6e63757272656e744552433732313a207472616e7366657220746f207a65604482015269726f206164647265737360b01b606482015260840162000455565b600254604051631ab06ee560e01b8152600481018490526001600160a01b03858116602483015290911690631ab06ee590604401600060405180830381600087803b1580156200084057600080fd5b505af115801562000855573d6000803e3d6000fd5b505050506001600160a01b03848116600090815260036020526040908190205490516313f72c5360e11b8152600160048201529116906327ee58a6906024016020604051808303816000875af1158015620008b4573d6000803e3d6000fd5b505050506040513d601f19601f82011682018060405250810190620008da9190620018cd565b506001600160a01b0383811660009081526003602052604090205416620009675760006000196040516200090e9062001579565b9182526020820152604001604051809103906000f08015801562000936573d6000803e3d6000fd5b506001600160a01b03848116600090815260036020526040902080546001600160a01b031916929091169190911790555b6001600160a01b0383811660009081526003602052604090819020549051630801f16960e11b815260016004820152911690631003e2d2906024016020604051808303816000875af1158015620009c2573d6000803e3d6000fd5b505050506040513d601f19601f82011682018060405250810190620009e89190620018cd565b5060008281526005602052604080822080546001600160a01b03191690555183916001600160a01b0386811692908816917fddf252ad1be2c89b69c2b068fc378daa952ba7f163c4a11628f55a4df523b3ef91a450505050565b62000a5f83838360405180602001604052806000815250620012bf565b505050565b600062000a718262000ca7565b905062000a8033838362001496565b62000ae95760405162461bcd60e51b815260206004820152603260248201527f436f6e63757272656e744552433732313a2063616c6c6572206973206e6f74206044820152711bdddb995c881b9bdc88185c1c1c9bdd995960721b606482015260840162000455565b6002546040516357771a2360e01b8152600481018490526001600160a01b03909116906357771a23906024016020604051808303816000875af115801562000b35573d6000803e3d6000fd5b505050506040513d601f19601f8201168201806040525081019062000b5b9190620018cd565b506001600160a01b03818116600090815260036020526040908190205490516313f72c5360e11b8152600160048201529116906327ee58a6906024016020604051808303816000875af115801562000bb7573d6000803e3d6000fd5b505050506040513d601f19601f8201168201806040525081019062000bdd9190620018cd565b50600480546040516313f72c5360e11b81526001928101929092526001600160a01b0316906327ee58a6906024016020604051808303816000875af115801562000c2b573d6000803e3d6000fd5b505050506040513d601f19601f8201168201806040525081019062000c519190620018cd565b5060008281526005602052604080822080546001600160a01b0319169055518391906001600160a01b038416907fddf252ad1be2c89b69c2b068fc378daa952ba7f163c4a11628f55a4df523b3ef908390a45050565b600254604051634a83e9cd60e11b81526004810183905260009182916001600160a01b0390911690639507d39a906024016020604051808303816000875af115801562000cf8573d6000803e3d6000fd5b505050506040513d601f19601f8201168201806040525081019062000d1e9190620018b3565b90506001600160a01b038116620003405760405162461bcd60e51b815260206004820152603360248201527f436f6e63757272656e744552433732313a206f776e657220717565727920666f60448201527239103737b732bc34b9ba32b73a103a37b5b2b760691b606482015260840162000455565b6000336001600160a01b037f0000000000000000000000000000000000000000000000000000000000000000161462000e1f5760405162461bcd60e51b815260206004820152602660248201527f436f6e63757272656e744552433732313a2063616c6c6572206973206e6f742060448201526536b4b73a32b960d11b606482015260840162000455565b6001600160a01b03821662000e865760405162461bcd60e51b815260206004820152602660248201527f436f6e63757272656e744552433732313a206d696e7420746f207a65726f206160448201526564647265737360d01b606482015260840162000455565b600062000e92620014ef565b8051602090910120600254604051631ab06ee560e01b8152600481018390526001600160a01b038681166024830152929350911690631ab06ee590604401600060405180830381600087803b15801562000eeb57600080fd5b505af115801562000f00573d6000803e3d6000fd5b505050506001600160a01b038381166000908152600360205260409020541662000f9057600060001960405162000f379062001579565b9182526020820152604001604051809103906000f08015801562000f5f573d6000803e3d6000fd5b506001600160a01b03848116600090815260036020526040902080546001600160a01b031916929091169190911790555b6001600160a01b0383811660009081526003602052604090819020549051630801f16960e11b815260016004820152911690631003e2d2906024016020604051808303816000875af115801562000feb573d6000803e3d6000fd5b505050506040513d601f19601f82011682018060405250810190620010119190620018cd565b5060048054604051630801f16960e11b81526001928101929092526001600160a01b031690631003e2d2906024016020604051808303816000875af11580156200105f573d6000803e3d6000fd5b505050506040513d601f19601f82011682018060405250810190620010859190620018cd565b5060405181906001600160a01b038516906000907fddf252ad1be2c89b69c2b068fc378daa952ba7f163c4a11628f55a4df523b3ef908290a492915050565b60006001600160a01b038216620011375760405162461bcd60e51b815260206004820152603060248201527f436f6e63757272656e744552433732313a2062616c616e63652071756572792060448201526f666f72207a65726f206164647265737360801b606482015260840162000455565b6001600160a01b03828116600090815260036020526040902054166200115f57506000919050565b6001600160a01b03808316600090815260036020908152604091829020548251631b53398f60e21b81529251931692636d4ce63c9260048082019392918290030181865afa158015620011b6573d6000803e3d6000fd5b505050506040513d601f19601f82011682018060405250810190620003409190620018b3565b606060018054620003579062001877565b336001600160a01b03831603620012535760405162461bcd60e51b815260206004820152602360248201527f436f6e63757272656e744552433732313a20617070726f766520746f2063616c6044820152623632b960e91b606482015260840162000455565b3360008181526006602090815260408083206001600160a01b03871680855290835292819020805460ff191686151590811790915590519081529192917f17307eab39ab6107e8899845ad3d59bd9653f200f220920489ca2b5937696c31910160405180910390a35050565b620012cc8484846200067b565b6001600160a01b0383163b15620013e757604051630a85bd0160e11b81526001600160a01b0384169063150b7a029062001311903390889087908790600401620018ed565b6020604051808303816000875af19250505080156200134f575060408051601f3d908101601f191682019092526200134c918101906200192c565b60015b620013b2573d80801562001380576040519150601f19603f3d011682016040523d82523d6000602084013e62001385565b606091505b508051600003620013aa5760405162461bcd60e51b815260040162000455906200194c565b805181602001fd5b6001600160e01b03198116630a85bd0160e11b14620013e55760405162461bcd60e51b815260040162000455906200194c565b505b50505050565b6001600160a01b03918216600090815260066020908152604080832093909416825291909152205460ff1690565b600254604051634a83e9cd60e11b8152600481018390526000916001600160a01b031690639507d39a906024016020604051808303816000875af115801562001468573d6000803e3d6000fd5b505050506040513d601f19601f820116820180604052508101906200148e9190620018b3565b151592915050565b6000816001600160a01b0316846001600160a01b03161480620014d45750836001600160a01b0316620014c984620003e0565b6001600160a01b0316145b80620014e75750620014e78285620013ed565b949350505050565b60408051600481526024810182526020810180516001600160e01b031663bb07e85d60e01b179052905160609160009160a0916200152d91620019a9565b6000604051808303816000865af19150503d80600081146200156c576040519150601f19603f3d011682016040523d82523d6000602084013e62001571565b606091505b509392505050565b6104d780620019c883390190565b6001600160e01b0319811681146200159e57600080fd5b50565b600060208284031215620015b457600080fd5b8135620015c18162001587565b9392505050565b60005b83811015620015e5578181015183820152602001620015cb565b50506000910152565b6000815180845262001608816020860160208601620015c8565b601f01601f19169290920160200192915050565b602081526000620015c16020830184620015ee565b6000602082840312156200164457600080fd5b5035919050565b80356001600160a01b03811681146200166357600080fd5b919050565b600080604083850312156200167c57600080fd5b62001687836200164b565b946020939093013593505050565b600080600060608486031215620016ab57600080fd5b620016b6846200164b565b9250620016c6602085016200164b565b9150604084013590509250925092565b600060208284031215620016e957600080fd5b620015c1826200164b565b80151581146200159e57600080fd5b600080604083850312156200171757600080fd5b62001722836200164b565b915060208301356200173481620016f4565b809150509250929050565b634e487b7160e01b600052604160045260246000fd5b600080600080608085870312156200176c57600080fd5b62001777856200164b565b935062001787602086016200164b565b925060408501359150606085013567ffffffffffffffff80821115620017ac57600080fd5b818701915087601f830112620017c157600080fd5b813581811115620017d657620017d66200173f565b604051601f8201601f19908116603f011681019083821181831017156200180157620018016200173f565b816040528281528a60208487010111156200181b57600080fd5b82602086016020830137600060208483010152809550505050505092959194509250565b600080604083850312156200185357600080fd5b6200185e836200164b565b91506200186e602084016200164b565b90509250929050565b600181811c908216806200188c57607f821691505b602082108103620018ad57634e487b7160e01b600052602260045260246000fd5b50919050565b600060208284031215620018c657600080fd5b5051919050565b600060208284031215620018e057600080fd5b8151620015c181620016f4565b6001600160a01b03858116825284166020820152604081018390526080606082018190526000906200192290830184620015ee565b9695505050505050565b6000602082840312156200193f57600080fd5b8151620015c18162001587565b6020808252603c908201527f436f6e63757272656e744552433732313a207472616e7366657220746f206e6f60408201527f6e20455243373231526563656976657220696d706c656d656e74657200000000606082015260800190565b60008251620019bd818460208701620015c8565b919091019291505056fe608060405234801561001057600080fd5b506040516104d73803806104d783398101604081905261002f916100d9565b604051602481018390526044810182905260009060859060640160408051601f198184030181529181526020820180516001600160e01b0316630719126760e21b1790525161007e91906100fd565b6000604051808303816000865af19150503d80600081146100bb576040519150601f19603f3d011682016040523d82523d6000602084013e6100c0565b606091505b50509050806100d1576100d161012c565b505050610142565b600080604083850312156100ec57600080fd5b505080516020909101519092909150565b6000825160005b8181101561011e5760208186018101518583015201610104565b506000920191825250919050565b634e487b7160e01b600052600160045260246000fd5b610386806101516000396000f3fe608060405234801561001057600080fd5b50600436106100625760003560e01c80631003e2d21461006757806327ee58a61461008f5780636ac5db19146100a25780636d4ce63c146100b85780637d7b0099146100c0578063f8897945146100e0575b600080fd5b61007a6100753660046102ef565b6100e8565b60405190151581526020015b60405180910390f35b61007a61009d3660046102ef565b61018a565b6100aa6101e0565b604051908152602001610086565b6100aa610279565b6100c8608581565b6040516001600160a01b039091168152602001610086565b6100aa6102b4565b60008060856001600160a01b03168360405160240161010991815260200190565b60408051601f198184030181529181526020820180516001600160e01b0316630801f16960e11b1790525161013e9190610308565b6000604051808303816000865af19150503d806000811461017b576040519150601f19603f3d011682016040523d82523d6000602084013e610180565b606091505b5090949350505050565b60008060856001600160a01b0316836040516024016101ab91815260200190565b60408051601f198184030181529181526020820180516001600160e01b03166313f72c5360e11b1790525161013e9190610308565b60408051600481526024810182526020810180516001600160e01b0316636ac5db1960e01b1790529051600091829160859161021b91610308565b600060405180830381855afa9150503d8060008114610256576040519150601f19603f3d011682016040523d82523d6000602084013e61025b565b606091505b50915050808060200190518101906102739190610337565b91505090565b60408051600481526024810182526020810180516001600160e01b0316631b53398f60e21b1790529051600091829160859161021b91610308565b60408051600481526024810182526020810180516001600160e01b031663f889794560e01b1790529051600091829160859161021b91610308565b60006020828403121561030157600080fd5b5035919050565b6000825160005b81811015610329576020818601810151858301520161030f565b506000920191825250919050565b60006020828403121561034957600080fd5b505191905056fea264697066735822122028b7a1106818c5b938450f8172669c8a5163b651a5c3fa19a3cb7daa0184c7be64736f6c63430008130033a2646970667358221220d024add041b233df7f6aa5bfa0db3f4a1e17794e80870ae0c1723eedfbd25e6964736f6c63430008130033608060405234801561001057600080fd5b50600080546001600160a01b03191660849081178255604051606b60248201819052604482018490529291839183908190839060640160408051601f198184030181529181526020820180516001600160e01b031663b613002b60e01b1790525161007b91906100d6565b6000604051808303816000865af19150503d80600081146100b8576040519150601f19603f3d011682016040523d82523d6000602084013e6100bd565b606091505b50509050806100cb57600080fd5b505050505050610105565b6000825160005b818110156100f757602081860181015185830152016100dd565b506000920191825250919050565b611091806101146000396000f3fe608060405234801561001057600080fd5b50600436106101fb5760003560e01c806386039d781161011a578063b4a1054c116100ad578063c767f36f1161007c578063c767f36f1461040e578063dfcefbbc14610421578063f2f3766514610434578063f889794514610447578063fe092b0e1461044f57600080fd5b8063b4a1054c146103e3578063bb07e85d146103eb578063bdadcf6f146103f3578063c1d17c9c146103fb57600080fd5b8063a6514259116100e9578063a6514259146103ad578063ad1b9f14146103c0578063af31b18b146103c8578063b1d606f0146103d057600080fd5b806386039d781461035e5780638ec828ed14610366578063911f6fe0146103875780639507d39a1461039a57600080fd5b8063512a0d04116101925780636ac5db19116101615780636ac5db19146102f55780636b1773f91461031857806379fc09a2146103205780637d7b00991461033357600080fd5b8063512a0d04146102b457806352efea6e146102c757806357771a23146102cf5780635ea59e09146102e257600080fd5b80632b969048116101ce5780632b969048146102655780634223b5c21461026d5780634ebbc92a1461028e5780634f558e79146102a157600080fd5b8063020783861461020057806306ed323c1461022857806314506524146102485780631ab06ee514610250575b600080fd5b61021361020e366004610cd7565b610462565b60405190151581526020015b60405180910390f35b61023b610236366004610cd7565b6104b2565b60405161021f9190610d40565b61023b610503565b61026361025e366004610d53565b610542565b005b61023b61058a565b61028061027b366004610cd7565b6105c2565b60405190815260200161021f565b61021361029c366004610cd7565b6105e6565b6102136102af366004610cd7565b610612565b6102136102c2366004610e18565b61063b565b61021361068f565b6102136102dd366004610cd7565b6106cd565b6102136102f0366004610ea0565b6106f9565b6102fd61073f565b6040805193845260208401929092529082015260600161021f565b61023b610779565b61021361032e366004610ea0565b6107b1565b600054610346906001600160a01b031681565b6040516001600160a01b03909116815260200161021f565b6102806107f7565b610379610374366004610cd7565b61084b565b60405161021f929190610ed5565b610280610395366004610ea0565b61089d565b6102806103a8366004610cd7565b6108fa565b6103796103bb366004610ea0565b610951565b6102806109f4565b610280610a2b565b6102136103de366004610ea0565b610a62565b610280610aa8565b61023b610b08565b610213610b17565b610379610409366004610ea0565b610b4e565b61037961041c366004610ea0565b610b66565b61021361042f366004610ef0565b610bbd565b610213610442366004610f37565b610be4565b6102fd610c35565b61028061045d366004610cd7565b610c45565b6000806104aa8360405160240161047b91815260200190565b60408051601f198184030181529190526020810180516001600160e01b0316630103c1c360e11b179052610b66565b509392505050565b606060006104fb836040516024016104cc91815260200190565b60408051601f198184030181529190526020810180516001600160e01b03166301bb4c8f60e21b179052610b66565b949350505050565b6040805160048152602481019091526020810180516001600160e01b0316636ac5db1960e01b17905260609060009061053b90610b66565b9392505050565b6105858260405160200161055891815260200190565b60408051601f19818403018152828252602083018590529101604051602081830303815290604052610be4565b505050565b6040805160048152602481019091526020810180516001600160e01b031663f889794560e01b17905260609060009061053b90610b66565b60006105cd826104b2565b8060200190518101906105e09190610f91565b92915050565b60006105e0826040516020016105fe91815260200190565b6040516020818303038152906040526107b1565b60008061061e836104b2565b905080516000036106325750600092915050565b61053b816107b1565b60008061068585858560405160240161065693929190610faa565b60408051601f198184030181529190526020810180516001600160e01b031663e5e214b560e01b179052610b66565b5095945050505050565b6040805160048152602481019091526020810180516001600160e01b0316632977f53760e11b17905260009081906106c690610b66565b5092915050565b60006105e0826040516020016106e591815260200190565b604051602081830303815290604052610a62565b6000806104aa836040516024016107109190610d40565b60408051601f198184030181529190526020810180516001600160e01b0316634a21473560e11b179052610b66565b600080600080600061074f610503565b8060200190518101906107629190610fed565b9150915061076f826105c2565b9591945092509050565b6040805160048152602481019091526020810180516001600160e01b0316630be0c6d560e01b17905260609060009061053b90610b66565b6000806104aa836040516024016107c89190610d40565b60408051601f198184030181529190526020810180516001600160e01b0316636b19df9b60e01b179052610b66565b6040805160048152602481019091526020810180516001600160e01b03166310c073af60e31b179052600090819061082e90610b66565b915050808060200190518101906108459190610f91565b91505090565b600060606108948360405160240161086591815260200190565b60408051601f198184030181529190526020810180516001600160e01b0316632d883a7360e01b179052610b66565b91509150915091565b6000806108e3836040516024016108b49190610d40565b60408051601f198184030181529190526020810180516001600160e01b0316630488fb7f60e51b179052610b66565b9150508080602001905181019061053b9190610f91565b60008060006109298460405160200161091591815260200190565b604051602081830303815290604052610b4e565b91509150811561094757808060200190518101906104fb9190610f91565b5060009392505050565b600080546040516060916001600160a01b031690610973908590602401610d40565b60408051601f198184030181529181526020820180516001600160e01b031663a651425960e01b179052516109a89190611011565b6000604051808303816000865af19150503d80600081146109e5576040519150601f19603f3d011682016040523d82523d6000602084013e6109ea565b606091505b5091509150915091565b6040805160048152602481019091526020810180516001600160e01b0316630fbdb69960e11b179052600090819061082e90610b66565b6040805160048152602481019091526020810180516001600160e01b031663af31b18b60e01b179052600090819061082e90610b66565b6000806104aa83604051602401610a799190610d40565b60408051601f198184030181529190526020810180516001600160e01b0316632aa304f560e11b179052610b66565b6040805160048152602481019091526020810180516001600160e01b0316632d28415360e21b1790526000908190610adf90610b66565b915050600081511115610b0057808060200190518101906108459190610f91565b600091505090565b6060610b12610c53565b905090565b6040805160048152602481019091526020810180516001600160e01b031663bdadcf6f60e01b17905260009081906106c690610b66565b60006060610894836040516024016107c89190610d40565b600080546040516060916001600160a01b031690610b88908590602401610d40565b60408051601f198184030181529181526020820180516001600160e01b031663c767f36f60e01b179052516109a89190611011565b600080610bc9846104b2565b90508051600003610bde5760009150506105e0565b6104fb81845b600080610c2c8484604051602401610bfd92919061102d565b60408051601f198184030181529190526020810180516001600160e01b031663456a75fb60e11b179052610b66565b50949350505050565b600080600080600061074f61058a565b60008060006109298461084b565b60408051600481526024810182526020810180516001600160e01b031663bb07e85d60e01b179052905160609160009160a091610c8f91611011565b6000604051808303816000865af19150503d8060008114610ccc576040519150601f19603f3d011682016040523d82523d6000602084013e6104aa565b506060949350505050565b600060208284031215610ce957600080fd5b5035919050565b60005b83811015610d0b578181015183820152602001610cf3565b50506000910152565b60008151808452610d2c816020860160208601610cf0565b601f01601f19169290920160200192915050565b60208152600061053b6020830184610d14565b60008060408385031215610d6657600080fd5b50508035926020909101359150565b634e487b7160e01b600052604160045260246000fd5b600082601f830112610d9c57600080fd5b813567ffffffffffffffff80821115610db757610db7610d75565b604051601f8301601f19908116603f01168101908282118183101715610ddf57610ddf610d75565b81604052838152866020858801011115610df857600080fd5b836020870160208301376000602085830101528094505050505092915050565b600080600060608486031215610e2d57600080fd5b833567ffffffffffffffff80821115610e4557600080fd5b610e5187838801610d8b565b94506020860135915080821115610e6757600080fd5b610e7387838801610d8b565b93506040860135915080821115610e8957600080fd5b50610e9686828701610d8b565b9150509250925092565b600060208284031215610eb257600080fd5b813567ffffffffffffffff811115610ec957600080fd5b6104fb84828501610d8b565b82151581526040602082015260006104fb6040830184610d14565b60008060408385031215610f0357600080fd5b82359150602083013567ffffffffffffffff811115610f2157600080fd5b610f2d85828601610d8b565b9150509250929050565b60008060408385031215610f4a57600080fd5b823567ffffffffffffffff80821115610f6257600080fd5b610f6e86838701610d8b565b93506020850135915080821115610f8457600080fd5b50610f2d85828601610d8b565b600060208284031215610fa357600080fd5b5051919050565b606081526000610fbd6060830186610d14565b8281036020840152610fcf8186610d14565b90508281036040840152610fe38185610d14565b9695505050505050565b6000806040838503121561100057600080fd5b505080516020909101519092909150565b60008251611023818460208701610cf0565b9190910192915050565b6040815260006110406040830185610d14565b82810360208401526110528185610d14565b9594505050505056fea2646970667358221220639203e3df2af849cb7abe27487daa823391228b073ff920b2dce4038fa4537064736f6c63430008130033608060405234801561001057600080fd5b506040516104d73803806104d783398101604081905261002f916100d9565b604051602481018390526044810182905260009060859060640160408051601f198184030181529181526020820180516001600160e01b0316630719126760e21b1790525161007e91906100fd565b6000604051808303816000865af19150503d80600081146100bb576040519150601f19603f3d011682016040523d82523d6000602084013e6100c0565b606091505b50509050806100d1576100d161012c565b505050610142565b600080604083850312156100ec57600080fd5b505080516020909101519092909150565b6000825160005b8181101561011e5760208186018101518583015201610104565b506000920191825250919050565b634e487b7160e01b600052600160045260246000fd5b610386806101516000396000f3fe608060405234801561001057600080fd5b50600436106100625760003560e01c80631003e2d21461006757806327ee58a61461008f5780636ac5db19146100a25780636d4ce63c146100b85780637d7b0099146100c0578063f8897945146100e0575b600080fd5b61007a6100753660046102ef565b6100e8565b60405190151581526020015b60405180910390f35b61007a61009d3660046102ef565b61018a565b6100aa6101e0565b604051908152602001610086565b6100aa610279565b6100c8608581565b6040516001600160a01b039091168152602001610086565b6100aa6102b4565b60008060856001600160a01b03168360405160240161010991815260200190565b60408051601f198184030181529181526020820180516001600160e01b0316630801f16960e11b1790525161013e9190610308565b6000604051808303816000865af19150503d806000811461017b576040519150601f19603f3d011682016040523d82523d6000602084013e610180565b606091505b5090949350505050565b60008060856001600160a01b0316836040516024016101ab91815260200190565b60408051601f198184030181529181526020820180516001600160e01b03166313f72c5360e11b1790525161013e9190610308565b60408051600481526024810182526020810180516001600160e01b0316636ac5db1960e01b1790529051600091829160859161021b91610308565b600060405180830381855afa9150503d8060008114610256576040519150601f19603f3d011682016040523d82523d6000602084013e61025b565b606091505b50915050808060200190518101906102739190610337565b91505090565b60408051600481526024810182526020810180516001600160e01b0316631b53398f60e21b1790529051600091829160859161021b91610308565b60408051600481526024810182526020810180516001600160e01b031663f889794560e01b1790529051600091829160859161021b91610308565b60006020828403121561030157600080fd5b5035919050565b6000825160005b81811015610329576020818601810151858301520161030f565b506000920191825250919050565b60006020828403121561034957600080fd5b505191905056fea264697066735822122028b7a1106818c5b938450f8172669c8a5163b651a5c3fa19a3cb7daa0184c7be64736f6c63430008130033a26469706673582212207b57c68b48cb061e845c5564b05d5d19d40a3fec8c7f5215d4ac806e3e15530664736f6c63430008130033",
  "linkReferences": {},
  "deployedLinkReferences": {},
  "immutableReferences": {
    "2864": [
      {
        "length": 32,
        "start": 249
      },
      {
        "length": 32,
        "start": 983
      },
      {
        "length": 32,
        "start": 3656
      },
      {
        "length": 32,
        "start": 4374
      }
    ]
  },
  "inputSourceName": "project/contracts/TicketingCore.sol",
  "buildInfoId": "solc-0_8_19-ecd72e38852b92ca588b45517a235d44b4832e0d"
}